{
  "_format": "hh-sol-artifact-1",
  "contractName": "Yearn",
  "sourceName": "contracts/Yearn.sol",
  "abi": [
    {
      "inputs": [],
      "stateMutability": "nonpayable",
      "type": "constructor"
    },
    {
      "anonymous": false,
      "inputs": [
        {
          "indexed": true,
          "internalType": "address",
          "name": "owner",
          "type": "address"
        },
        {
          "indexed": true,
          "internalType": "address",
          "name": "spender",
          "type": "address"
        },
        {
          "indexed": false,
          "internalType": "uint256",
          "name": "value",
          "type": "uint256"
        }
      ],
      "name": "Approval",
      "type": "event"
    },
    {
      "anonymous": false,
      "inputs": [
        {
          "indexed": true,
          "internalType": "bytes32",
          "name": "role",
          "type": "bytes32"
        },
        {
          "indexed": true,
          "internalType": "bytes32",
          "name": "previousAdminRole",
          "type": "bytes32"
        },
        {
          "indexed": true,
          "internalType": "bytes32",
          "name": "newAdminRole",
          "type": "bytes32"
        }
      ],
      "name": "RoleAdminChanged",
      "type": "event"
    },
    {
      "anonymous": false,
      "inputs": [
        {
          "indexed": true,
          "internalType": "bytes32",
          "name": "role",
          "type": "bytes32"
        },
        {
          "indexed": true,
          "internalType": "address",
          "name": "account",
          "type": "address"
        },
        {
          "indexed": true,
          "internalType": "address",
          "name": "sender",
          "type": "address"
        }
      ],
      "name": "RoleGranted",
      "type": "event"
    },
    {
      "anonymous": false,
      "inputs": [
        {
          "indexed": true,
          "internalType": "bytes32",
          "name": "role",
          "type": "bytes32"
        },
        {
          "indexed": true,
          "internalType": "address",
          "name": "account",
          "type": "address"
        },
        {
          "indexed": true,
          "internalType": "address",
          "name": "sender",
          "type": "address"
        }
      ],
      "name": "RoleRevoked",
      "type": "event"
    },
    {
      "anonymous": false,
      "inputs": [
        {
          "indexed": false,
          "internalType": "uint256",
          "name": "id",
          "type": "uint256"
        }
      ],
      "name": "Snapshot",
      "type": "event"
    },
    {
      "anonymous": false,
      "inputs": [
        {
          "indexed": true,
          "internalType": "address",
          "name": "from",
          "type": "address"
        },
        {
          "indexed": true,
          "internalType": "address",
          "name": "to",
          "type": "address"
        },
        {
          "indexed": false,
          "internalType": "uint256",
          "name": "value",
          "type": "uint256"
        }
      ],
      "name": "Transfer",
      "type": "event"
    },
    {
      "inputs": [],
      "name": "DEFAULT_ADMIN_ROLE",
      "outputs": [
        {
          "internalType": "bytes32",
          "name": "",
          "type": "bytes32"
        }
      ],
      "stateMutability": "view",
      "type": "function"
    },
    {
      "inputs": [],
      "name": "DOMAIN_SEPARATOR",
      "outputs": [
        {
          "internalType": "bytes32",
          "name": "",
          "type": "bytes32"
        }
      ],
      "stateMutability": "view",
      "type": "function"
    },
    {
      "inputs": [],
      "name": "SNAPSHOT_ROLE",
      "outputs": [
        {
          "internalType": "bytes32",
          "name": "",
          "type": "bytes32"
        }
      ],
      "stateMutability": "view",
      "type": "function"
    },
    {
      "inputs": [
        {
          "internalType": "address",
          "name": "owner",
          "type": "address"
        },
        {
          "internalType": "address",
          "name": "spender",
          "type": "address"
        }
      ],
      "name": "allowance",
      "outputs": [
        {
          "internalType": "uint256",
          "name": "",
          "type": "uint256"
        }
      ],
      "stateMutability": "view",
      "type": "function"
    },
    {
      "inputs": [
        {
          "internalType": "address",
          "name": "spender",
          "type": "address"
        },
        {
          "internalType": "uint256",
          "name": "amount",
          "type": "uint256"
        }
      ],
      "name": "approve",
      "outputs": [
        {
          "internalType": "bool",
          "name": "",
          "type": "bool"
        }
      ],
      "stateMutability": "nonpayable",
      "type": "function"
    },
    {
      "inputs": [
        {
          "internalType": "address",
          "name": "account",
          "type": "address"
        }
      ],
      "name": "balanceOf",
      "outputs": [
        {
          "internalType": "uint256",
          "name": "",
          "type": "uint256"
        }
      ],
      "stateMutability": "view",
      "type": "function"
    },
    {
      "inputs": [
        {
          "internalType": "address",
          "name": "account",
          "type": "address"
        },
        {
          "internalType": "uint256",
          "name": "snapshotId",
          "type": "uint256"
        }
      ],
      "name": "balanceOfAt",
      "outputs": [
        {
          "internalType": "uint256",
          "name": "",
          "type": "uint256"
        }
      ],
      "stateMutability": "view",
      "type": "function"
    },
    {
      "inputs": [
        {
          "internalType": "uint256",
          "name": "amount",
          "type": "uint256"
        }
      ],
      "name": "burn",
      "outputs": [],
      "stateMutability": "nonpayable",
      "type": "function"
    },
    {
      "inputs": [
        {
          "internalType": "address",
          "name": "account",
          "type": "address"
        },
        {
          "internalType": "uint256",
          "name": "amount",
          "type": "uint256"
        }
      ],
      "name": "burnFrom",
      "outputs": [],
      "stateMutability": "nonpayable",
      "type": "function"
    },
    {
      "inputs": [],
      "name": "decimals",
      "outputs": [
        {
          "internalType": "uint8",
          "name": "",
          "type": "uint8"
        }
      ],
      "stateMutability": "view",
      "type": "function"
    },
    {
      "inputs": [
        {
          "internalType": "address",
          "name": "spender",
          "type": "address"
        },
        {
          "internalType": "uint256",
          "name": "subtractedValue",
          "type": "uint256"
        }
      ],
      "name": "decreaseAllowance",
      "outputs": [
        {
          "internalType": "bool",
          "name": "",
          "type": "bool"
        }
      ],
      "stateMutability": "nonpayable",
      "type": "function"
    },
    {
      "inputs": [
        {
          "internalType": "bytes32",
          "name": "role",
          "type": "bytes32"
        }
      ],
      "name": "getRoleAdmin",
      "outputs": [
        {
          "internalType": "bytes32",
          "name": "",
          "type": "bytes32"
        }
      ],
      "stateMutability": "view",
      "type": "function"
    },
    {
      "inputs": [
        {
          "internalType": "bytes32",
          "name": "role",
          "type": "bytes32"
        },
        {
          "internalType": "address",
          "name": "account",
          "type": "address"
        }
      ],
      "name": "grantRole",
      "outputs": [],
      "stateMutability": "nonpayable",
      "type": "function"
    },
    {
      "inputs": [
        {
          "internalType": "bytes32",
          "name": "role",
          "type": "bytes32"
        },
        {
          "internalType": "address",
          "name": "account",
          "type": "address"
        }
      ],
      "name": "hasRole",
      "outputs": [
        {
          "internalType": "bool",
          "name": "",
          "type": "bool"
        }
      ],
      "stateMutability": "view",
      "type": "function"
    },
    {
      "inputs": [
        {
          "internalType": "address",
          "name": "spender",
          "type": "address"
        },
        {
          "internalType": "uint256",
          "name": "addedValue",
          "type": "uint256"
        }
      ],
      "name": "increaseAllowance",
      "outputs": [
        {
          "internalType": "bool",
          "name": "",
          "type": "bool"
        }
      ],
      "stateMutability": "nonpayable",
      "type": "function"
    },
    {
      "inputs": [],
      "name": "name",
      "outputs": [
        {
          "internalType": "string",
          "name": "",
          "type": "string"
        }
      ],
      "stateMutability": "view",
      "type": "function"
    },
    {
      "inputs": [
        {
          "internalType": "address",
          "name": "owner",
          "type": "address"
        }
      ],
      "name": "nonces",
      "outputs": [
        {
          "internalType": "uint256",
          "name": "",
          "type": "uint256"
        }
      ],
      "stateMutability": "view",
      "type": "function"
    },
    {
      "inputs": [
        {
          "internalType": "address",
          "name": "owner",
          "type": "address"
        },
        {
          "internalType": "address",
          "name": "spender",
          "type": "address"
        },
        {
          "internalType": "uint256",
          "name": "value",
          "type": "uint256"
        },
        {
          "internalType": "uint256",
          "name": "deadline",
          "type": "uint256"
        },
        {
          "internalType": "uint8",
          "name": "v",
          "type": "uint8"
        },
        {
          "internalType": "bytes32",
          "name": "r",
          "type": "bytes32"
        },
        {
          "internalType": "bytes32",
          "name": "s",
          "type": "bytes32"
        }
      ],
      "name": "permit",
      "outputs": [],
      "stateMutability": "nonpayable",
      "type": "function"
    },
    {
      "inputs": [
        {
          "internalType": "bytes32",
          "name": "role",
          "type": "bytes32"
        },
        {
          "internalType": "address",
          "name": "account",
          "type": "address"
        }
      ],
      "name": "renounceRole",
      "outputs": [],
      "stateMutability": "nonpayable",
      "type": "function"
    },
    {
      "inputs": [
        {
          "internalType": "bytes32",
          "name": "role",
          "type": "bytes32"
        },
        {
          "internalType": "address",
          "name": "account",
          "type": "address"
        }
      ],
      "name": "revokeRole",
      "outputs": [],
      "stateMutability": "nonpayable",
      "type": "function"
    },
    {
      "inputs": [],
      "name": "snapshot",
      "outputs": [],
      "stateMutability": "nonpayable",
      "type": "function"
    },
    {
      "inputs": [
        {
          "internalType": "bytes4",
          "name": "interfaceId",
          "type": "bytes4"
        }
      ],
      "name": "supportsInterface",
      "outputs": [
        {
          "internalType": "bool",
          "name": "",
          "type": "bool"
        }
      ],
      "stateMutability": "view",
      "type": "function"
    },
    {
      "inputs": [],
      "name": "symbol",
      "outputs": [
        {
          "internalType": "string",
          "name": "",
          "type": "string"
        }
      ],
      "stateMutability": "view",
      "type": "function"
    },
    {
      "inputs": [],
      "name": "totalSupply",
      "outputs": [
        {
          "internalType": "uint256",
          "name": "",
          "type": "uint256"
        }
      ],
      "stateMutability": "view",
      "type": "function"
    },
    {
      "inputs": [
        {
          "internalType": "uint256",
          "name": "snapshotId",
          "type": "uint256"
        }
      ],
      "name": "totalSupplyAt",
      "outputs": [
        {
          "internalType": "uint256",
          "name": "",
          "type": "uint256"
        }
      ],
      "stateMutability": "view",
      "type": "function"
    },
    {
      "inputs": [
        {
          "internalType": "address",
          "name": "recipient",
          "type": "address"
        },
        {
          "internalType": "uint256",
          "name": "amount",
          "type": "uint256"
        }
      ],
      "name": "transfer",
      "outputs": [
        {
          "internalType": "bool",
          "name": "",
          "type": "bool"
        }
      ],
      "stateMutability": "nonpayable",
      "type": "function"
    },
    {
      "inputs": [
        {
          "internalType": "address",
          "name": "sender",
          "type": "address"
        },
        {
          "internalType": "address",
          "name": "recipient",
          "type": "address"
        },
        {
          "internalType": "uint256",
          "name": "amount",
          "type": "uint256"
        }
      ],
      "name": "transferFrom",
      "outputs": [
        {
          "internalType": "bool",
          "name": "",
          "type": "bool"
        }
      ],
      "stateMutability": "nonpayable",
      "type": "function"
    }
  ],
  "bytecode": "0x6101406040527f6e71edae12b1b97f4d1f60370fef10105fa2faae0126114a169c64845d6126c9610120908152503480156200003a57600080fd5b506040518060400160405280600581526020017f596561726e000000000000000000000000000000000000000000000000000000815250806040518060400160405280600181526020017f31000000000000000000000000000000000000000000000000000000000000008152506040518060400160405280600581526020017f596561726e0000000000000000000000000000000000000000000000000000008152506040518060400160405280600381526020017f59524e000000000000000000000000000000000000000000000000000000000081525081600390805190602001906200012c929190620008b6565b50806004908051906020019062000145929190620008b6565b50505060008280519060200120905060008280519060200120905060007f8b73c3c69bb8fe3d512ecc4cf759cc79239f7b179b0ffacaa9a75d522b39400f90508260c081815250508160e081815250504660a08181525050620001b08184846200025260201b60201c565b60808181525050806101008181525050505050505050620001db6000801b336200028e60201b60201c565b6200020d7f5fdbd35e8da83ee755d5e62a539e5ed7f47126abede0b8b10f9ea43dc6eed07f336200028e60201b60201c565b6200024c3362000222620002a460201b60201c565b600a62000230919062000b25565b62124f8062000240919062000c62565b620002ad60201b60201c565b62000e1d565b600083838346306040516020016200026f959493929190620009c0565b6040516020818303038152906040528051906020012090509392505050565b620002a082826200042660201b60201c565b5050565b60006012905090565b600073ffffffffffffffffffffffffffffffffffffffff168273ffffffffffffffffffffffffffffffffffffffff16141562000320576040517f08c379a0000000000000000000000000000000000000000000000000000000008152600401620003179062000a1d565b60405180910390fd5b62000334600083836200051860201b60201c565b806002600082825462000348919062000a6d565b92505081905550806000808473ffffffffffffffffffffffffffffffffffffffff1673ffffffffffffffffffffffffffffffffffffffff16815260200190815260200160002060008282546200039f919062000a6d565b925050819055508173ffffffffffffffffffffffffffffffffffffffff16600073ffffffffffffffffffffffffffffffffffffffff167fddf252ad1be2c89b69c2b068fc378daa952ba7f163c4a11628f55a4df523b3ef8360405162000406919062000a3f565b60405180910390a362000422600083836200053560201b60201c565b5050565b6200043882826200053a60201b60201c565b620005145760016009600084815260200190815260200160002060000160008373ffffffffffffffffffffffffffffffffffffffff1673ffffffffffffffffffffffffffffffffffffffff16815260200190815260200160002060006101000a81548160ff021916908315150217905550620004b9620005a560201b60201c565b73ffffffffffffffffffffffffffffffffffffffff168173ffffffffffffffffffffffffffffffffffffffff16837f2f8788117e7eff1d82e926ec794901d17c78024a50270940304540a733656f0d60405160405180910390a45b5050565b62000530838383620005ad60201b62000f871760201c565b505050565b505050565b60006009600084815260200190815260200160002060000160008373ffffffffffffffffffffffffffffffffffffffff1673ffffffffffffffffffffffffffffffffffffffff16815260200190815260200160002060009054906101000a900460ff16905092915050565b600033905090565b620005c5838383620006a860201b620010411760201c565b600073ffffffffffffffffffffffffffffffffffffffff168373ffffffffffffffffffffffffffffffffffffffff16141562000622576200060c82620006ad60201b60201c565b6200061c6200071060201b60201c565b620006a3565b600073ffffffffffffffffffffffffffffffffffffffff168273ffffffffffffffffffffffffffffffffffffffff1614156200067f576200066983620006ad60201b60201c565b620006796200071060201b60201c565b620006a2565b6200069083620006ad60201b60201c565b620006a182620006ad60201b60201c565b5b5b505050565b505050565b6200070d600560008373ffffffffffffffffffffffffffffffffffffffff1673ffffffffffffffffffffffffffffffffffffffff16815260200190815260200160002062000701836200073460201b60201c565b6200077c60201b60201c565b50565b620007326006620007266200080860201b60201c565b6200077c60201b60201c565b565b60008060008373ffffffffffffffffffffffffffffffffffffffff1673ffffffffffffffffffffffffffffffffffffffff168152602001908152602001600020549050919050565b60006200078e6200081260201b60201c565b905080620007a5846000016200083060201b60201c565b1015620008035782600001819080600181540180825580915050600190039060005260206000200160009091909190915055826001018290806001815401808255809150506001900390600052602060002001600090919091909150555b505050565b6000600254905090565b60006200082b6008620008a860201b620010461760201c565b905090565b60008082805490501415620008495760009050620008a3565b81600183805490506200085d919062000cc3565b8154811062000895577f4e487b7100000000000000000000000000000000000000000000000000000000600052603260045260246000fd5b906000526020600020015490505b919050565b600081600001549050919050565b828054620008c49062000d53565b90600052602060002090601f016020900481019282620008e8576000855562000934565b82601f106200090357805160ff191683800117855562000934565b8280016001018555821562000934579182015b828111156200093357825182559160200191906001019062000916565b5b50905062000943919062000947565b5090565b5b808211156200096257600081600090555060010162000948565b5090565b620009718162000cfe565b82525050565b620009828162000d12565b82525050565b600062000997601f8362000a5c565b9150620009a48262000df4565b602082019050919050565b620009ba8162000d3c565b82525050565b600060a082019050620009d7600083018862000977565b620009e6602083018762000977565b620009f5604083018662000977565b62000a046060830185620009af565b62000a13608083018462000966565b9695505050505050565b6000602082019050818103600083015262000a388162000988565b9050919050565b600060208201905062000a566000830184620009af565b92915050565b600082825260208201905092915050565b600062000a7a8262000d3c565b915062000a878362000d3c565b9250827fffffffffffffffffffffffffffffffffffffffffffffffffffffffffffffffff0382111562000abf5762000abe62000d89565b5b828201905092915050565b6000808291508390505b600185111562000b1c5780860481111562000af45762000af362000d89565b5b600185161562000b045780820291505b808102905062000b148562000de7565b945062000ad4565b94509492505050565b600062000b328262000d3c565b915062000b3f8362000d46565b925062000b6e7fffffffffffffffffffffffffffffffffffffffffffffffffffffffffffffffff848462000b76565b905092915050565b60008262000b88576001905062000c5b565b8162000b98576000905062000c5b565b816001811462000bb1576002811462000bbc5762000bf2565b600191505062000c5b565b60ff84111562000bd15762000bd062000d89565b5b8360020a91508482111562000beb5762000bea62000d89565b5b5062000c5b565b5060208310610133831016604e8410600b841016171562000c2c5782820a90508381111562000c265762000c2562000d89565b5b62000c5b565b62000c3b848484600162000aca565b9250905081840481111562000c555762000c5462000d89565b5b81810290505b9392505050565b600062000c6f8262000d3c565b915062000c7c8362000d3c565b9250817fffffffffffffffffffffffffffffffffffffffffffffffffffffffffffffffff048311821515161562000cb85762000cb762000d89565b5b828202905092915050565b600062000cd08262000d3c565b915062000cdd8362000d3c565b92508282101562000cf35762000cf262000d89565b5b828203905092915050565b600062000d0b8262000d1c565b9050919050565b6000819050919050565b600073ffffffffffffffffffffffffffffffffffffffff82169050919050565b6000819050919050565b600060ff82169050919050565b6000600282049050600182168062000d6c57607f821691505b6020821081141562000d835762000d8262000db8565b5b50919050565b7f4e487b7100000000000000000000000000000000000000000000000000000000600052601160045260246000fd5b7f4e487b7100000000000000000000000000000000000000000000000000000000600052602260045260246000fd5b60008160011c9050919050565b7f45524332303a206d696e7420746f20746865207a65726f206164647265737300600082015250565b60805160a05160c05160e0516101005161012051613b1e62000e6d6000396000610ddc015260006116e7015260006117290152600061170801526000611694015260006116bc0152613b1e6000f3fe608060405234801561001057600080fd5b50600436106101a95760003560e01c80637028e2cd116100f9578063981b24d011610097578063a9059cbb11610071578063a9059cbb1461050a578063d505accf1461053a578063d547741f14610556578063dd62ed3e14610572576101a9565b8063981b24d01461048c578063a217fddf146104bc578063a457c2d7146104da576101a9565b80637ecebe00116100d35780637ecebe001461040457806391d148541461043457806395d89b41146104645780639711715a14610482576101a9565b80637028e2cd1461039a57806370a08231146103b857806379cc6790146103e8576101a9565b80632f2ff15d1161016657806336568abe1161014057806336568abe14610302578063395093511461031e57806342966c681461034e5780634ee2cd7e1461036a576101a9565b80632f2ff15d146102aa578063313ce567146102c65780633644e515146102e4576101a9565b806301ffc9a7146101ae57806306fdde03146101de578063095ea7b3146101fc57806318160ddd1461022c57806323b872dd1461024a578063248a9ca31461027a575b600080fd5b6101c860048036038101906101c3919061291f565b6105a2565b6040516101d59190612dd3565b60405180910390f35b6101e661061c565b6040516101f39190612f02565b60405180910390f35b6102166004803603810190610211919061287e565b6106ae565b6040516102239190612dd3565b60405180910390f35b6102346106cc565b60405161024191906131a4565b60405180910390f35b610264600480360381019061025f9190612791565b6106d6565b6040516102719190612dd3565b60405180910390f35b610294600480360381019061028f91906128ba565b6107ce565b6040516102a19190612dee565b60405180910390f35b6102c460048036038101906102bf91906128e3565b6107ee565b005b6102ce610817565b6040516102db91906131bf565b60405180910390f35b6102ec610820565b6040516102f99190612dee565b60405180910390f35b61031c600480360381019061031791906128e3565b61082f565b005b6103386004803603810190610333919061287e565b6108b2565b6040516103459190612dd3565b60405180910390f35b61036860048036038101906103639190612948565b61095e565b005b610384600480360381019061037f919061287e565b610972565b60405161039191906131a4565b60405180910390f35b6103a26109e2565b6040516103af9190612dee565b60405180910390f35b6103d260048036038101906103cd919061272c565b610a06565b6040516103df91906131a4565b60405180910390f35b61040260048036038101906103fd919061287e565b610a4e565b005b61041e6004803603810190610419919061272c565b610ac9565b60405161042b91906131a4565b60405180910390f35b61044e600480360381019061044991906128e3565b610b19565b60405161045b9190612dd3565b60405180910390f35b61046c610b84565b6040516104799190612f02565b60405180910390f35b61048a610c16565b005b6104a660048036038101906104a19190612948565b610c54565b6040516104b391906131a4565b60405180910390f35b6104c4610c85565b6040516104d19190612dee565b60405180910390f35b6104f460048036038101906104ef919061287e565b610c8c565b6040516105019190612dd3565b60405180910390f35b610524600480360381019061051f919061287e565b610d77565b6040516105319190612dd3565b60405180910390f35b610554600480360381019061054f91906127e0565b610d95565b005b610570600480360381019061056b91906128e3565b610ed7565b005b61058c60048036038101906105879190612755565b610f00565b60405161059991906131a4565b60405180910390f35b60007f7965db0b000000000000000000000000000000000000000000000000000000007bffffffffffffffffffffffffffffffffffffffffffffffffffffffff1916827bffffffffffffffffffffffffffffffffffffffffffffffffffffffff19161480610615575061061482611054565b5b9050919050565b60606003805461062b906133fe565b80601f0160208091040260200160405190810160405280929190818152602001828054610657906133fe565b80156106a45780601f10610679576101008083540402835291602001916106a4565b820191906000526020600020905b81548152906001019060200180831161068757829003601f168201915b5050505050905090565b60006106c26106bb6110be565b84846110c6565b6001905092915050565b6000600254905090565b60006106e3848484611291565b6000600160008673ffffffffffffffffffffffffffffffffffffffff1673ffffffffffffffffffffffffffffffffffffffff168152602001908152602001600020600061072e6110be565b73ffffffffffffffffffffffffffffffffffffffff1673ffffffffffffffffffffffffffffffffffffffff168152602001908152602001600020549050828110156107ae576040517f08c379a00000000000000000000000000000000000000000000000000000000081526004016107a5906130a4565b60405180910390fd5b6107c2856107ba6110be565b8584036110c6565b60019150509392505050565b600060096000838152602001908152602001600020600101549050919050565b6107f7826107ce565b610808816108036110be565b611512565b61081283836115af565b505050565b60006012905090565b600061082a611690565b905090565b6108376110be565b73ffffffffffffffffffffffffffffffffffffffff168173ffffffffffffffffffffffffffffffffffffffff16146108a4576040517f08c379a000000000000000000000000000000000000000000000000000000000815260040161089b90613184565b60405180910390fd5b6108ae8282611753565b5050565b60006109546108bf6110be565b8484600160006108cd6110be565b73ffffffffffffffffffffffffffffffffffffffff1673ffffffffffffffffffffffffffffffffffffffff16815260200190815260200160002060008873ffffffffffffffffffffffffffffffffffffffff1673ffffffffffffffffffffffffffffffffffffffff1681526020019081526020016000205461094f9190613201565b6110c6565b6001905092915050565b61096f6109696110be565b82611835565b50565b60008060006109bf84600560008873ffffffffffffffffffffffffffffffffffffffff1673ffffffffffffffffffffffffffffffffffffffff168152602001908152602001600020611a0c565b91509150816109d6576109d185610a06565b6109d8565b805b9250505092915050565b7f5fdbd35e8da83ee755d5e62a539e5ed7f47126abede0b8b10f9ea43dc6eed07f81565b60008060008373ffffffffffffffffffffffffffffffffffffffff1673ffffffffffffffffffffffffffffffffffffffff168152602001908152602001600020549050919050565b6000610a6183610a5c6110be565b610f00565b905081811015610aa6576040517f08c379a0000000000000000000000000000000000000000000000000000000008152600401610a9d906130c4565b60405180910390fd5b610aba83610ab26110be565b8484036110c6565b610ac48383611835565b505050565b6000610b12600a60008473ffffffffffffffffffffffffffffffffffffffff1673ffffffffffffffffffffffffffffffffffffffff168152602001908152602001600020611046565b9050919050565b60006009600084815260200190815260200160002060000160008373ffffffffffffffffffffffffffffffffffffffff1673ffffffffffffffffffffffffffffffffffffffff16815260200190815260200160002060009054906101000a900460ff16905092915050565b606060048054610b93906133fe565b80601f0160208091040260200160405190810160405280929190818152602001828054610bbf906133fe565b8015610c0c5780601f10610be157610100808354040283529160200191610c0c565b820191906000526020600020905b815481529060010190602001808311610bef57829003601f168201915b5050505050905090565b7f5fdbd35e8da83ee755d5e62a539e5ed7f47126abede0b8b10f9ea43dc6eed07f610c4881610c436110be565b611512565b610c50611b28565b5050565b6000806000610c64846006611a0c565b9150915081610c7a57610c756106cc565b610c7c565b805b92505050919050565b6000801b81565b60008060016000610c9b6110be565b73ffffffffffffffffffffffffffffffffffffffff1673ffffffffffffffffffffffffffffffffffffffff16815260200190815260200160002060008573ffffffffffffffffffffffffffffffffffffffff1673ffffffffffffffffffffffffffffffffffffffff16815260200190815260200160002054905082811015610d58576040517f08c379a0000000000000000000000000000000000000000000000000000000008152600401610d4f90613164565b60405180910390fd5b610d6c610d636110be565b858584036110c6565b600191505092915050565b6000610d8b610d846110be565b8484611291565b6001905092915050565b83421115610dd8576040517f08c379a0000000000000000000000000000000000000000000000000000000008152600401610dcf90613004565b60405180910390fd5b60007f0000000000000000000000000000000000000000000000000000000000000000888888610e078c611b7e565b89604051602001610e1d96959493929190612e09565b6040516020818303038152906040528051906020012090506000610e4082611bdc565b90506000610e5082878787611bf6565b90508973ffffffffffffffffffffffffffffffffffffffff168173ffffffffffffffffffffffffffffffffffffffff1614610ec0576040517f08c379a0000000000000000000000000000000000000000000000000000000008152600401610eb790613084565b60405180910390fd5b610ecb8a8a8a6110c6565b50505050505050505050565b610ee0826107ce565b610ef181610eec6110be565b611512565b610efb8383611753565b505050565b6000600160008473ffffffffffffffffffffffffffffffffffffffff1673ffffffffffffffffffffffffffffffffffffffff16815260200190815260200160002060008373ffffffffffffffffffffffffffffffffffffffff1673ffffffffffffffffffffffffffffffffffffffff16815260200190815260200160002054905092915050565b610f92838383611041565b600073ffffffffffffffffffffffffffffffffffffffff168373ffffffffffffffffffffffffffffffffffffffff161415610fdd57610fd082611c21565b610fd8611c74565b61103c565b600073ffffffffffffffffffffffffffffffffffffffff168273ffffffffffffffffffffffffffffffffffffffff1614156110285761101b83611c21565b611023611c74565b61103b565b61103183611c21565b61103a82611c21565b5b5b505050565b505050565b600081600001549050919050565b60007f01ffc9a7000000000000000000000000000000000000000000000000000000007bffffffffffffffffffffffffffffffffffffffffffffffffffffffff1916827bffffffffffffffffffffffffffffffffffffffffffffffffffffffff1916149050919050565b600033905090565b600073ffffffffffffffffffffffffffffffffffffffff168373ffffffffffffffffffffffffffffffffffffffff161415611136576040517f08c379a000000000000000000000000000000000000000000000000000000000815260040161112d90613124565b60405180910390fd5b600073ffffffffffffffffffffffffffffffffffffffff168273ffffffffffffffffffffffffffffffffffffffff1614156111a6576040517f08c379a000000000000000000000000000000000000000000000000000000000815260040161119d90612fe4565b60405180910390fd5b80600160008573ffffffffffffffffffffffffffffffffffffffff1673ffffffffffffffffffffffffffffffffffffffff16815260200190815260200160002060008473ffffffffffffffffffffffffffffffffffffffff1673ffffffffffffffffffffffffffffffffffffffff168152602001908152602001600020819055508173ffffffffffffffffffffffffffffffffffffffff168373ffffffffffffffffffffffffffffffffffffffff167f8c5be1e5ebec7d5bd14f71427d1e84f3dd0314c0f7b2291e5b200ac8c7c3b9258360405161128491906131a4565b60405180910390a3505050565b600073ffffffffffffffffffffffffffffffffffffffff168373ffffffffffffffffffffffffffffffffffffffff161415611301576040517f08c379a00000000000000000000000000000000000000000000000000000000081526004016112f890613104565b60405180910390fd5b600073ffffffffffffffffffffffffffffffffffffffff168273ffffffffffffffffffffffffffffffffffffffff161415611371576040517f08c379a000000000000000000000000000000000000000000000000000000000815260040161136890612f84565b60405180910390fd5b61137c838383611c88565b60008060008573ffffffffffffffffffffffffffffffffffffffff1673ffffffffffffffffffffffffffffffffffffffff16815260200190815260200160002054905081811015611402576040517f08c379a00000000000000000000000000000000000000000000000000000000081526004016113f990613024565b60405180910390fd5b8181036000808673ffffffffffffffffffffffffffffffffffffffff1673ffffffffffffffffffffffffffffffffffffffff16815260200190815260200160002081905550816000808573ffffffffffffffffffffffffffffffffffffffff1673ffffffffffffffffffffffffffffffffffffffff16815260200190815260200160002060008282546114959190613201565b925050819055508273ffffffffffffffffffffffffffffffffffffffff168473ffffffffffffffffffffffffffffffffffffffff167fddf252ad1be2c89b69c2b068fc378daa952ba7f163c4a11628f55a4df523b3ef846040516114f991906131a4565b60405180910390a361150c848484611c98565b50505050565b61151c8282610b19565b6115ab576115418173ffffffffffffffffffffffffffffffffffffffff166014611c9d565b61154f8360001c6020611c9d565b604051602001611560929190612d99565b6040516020818303038152906040526040517f08c379a00000000000000000000000000000000000000000000000000000000081526004016115a29190612f02565b60405180910390fd5b5050565b6115b98282610b19565b61168c5760016009600084815260200190815260200160002060000160008373ffffffffffffffffffffffffffffffffffffffff1673ffffffffffffffffffffffffffffffffffffffff16815260200190815260200160002060006101000a81548160ff0219169083151502179055506116316110be565b73ffffffffffffffffffffffffffffffffffffffff168173ffffffffffffffffffffffffffffffffffffffff16837f2f8788117e7eff1d82e926ec794901d17c78024a50270940304540a733656f0d60405160405180910390a45b5050565b60007f00000000000000000000000000000000000000000000000000000000000000004614156116e2577f00000000000000000000000000000000000000000000000000000000000000009050611750565b61174d7f00000000000000000000000000000000000000000000000000000000000000007f00000000000000000000000000000000000000000000000000000000000000007f0000000000000000000000000000000000000000000000000000000000000000611f97565b90505b90565b61175d8282610b19565b156118315760006009600084815260200190815260200160002060000160008373ffffffffffffffffffffffffffffffffffffffff1673ffffffffffffffffffffffffffffffffffffffff16815260200190815260200160002060006101000a81548160ff0219169083151502179055506117d66110be565b73ffffffffffffffffffffffffffffffffffffffff168173ffffffffffffffffffffffffffffffffffffffff16837ff6391f5c32d9c69d2a47ea670b442974b53935d1edc7fd64eb21e047a839171b60405160405180910390a45b5050565b600073ffffffffffffffffffffffffffffffffffffffff168273ffffffffffffffffffffffffffffffffffffffff1614156118a5576040517f08c379a000000000000000000000000000000000000000000000000000000000815260040161189c906130e4565b60405180910390fd5b6118b182600083611c88565b60008060008473ffffffffffffffffffffffffffffffffffffffff1673ffffffffffffffffffffffffffffffffffffffff16815260200190815260200160002054905081811015611937576040517f08c379a000000000000000000000000000000000000000000000000000000000815260040161192e90612fa4565b60405180910390fd5b8181036000808573ffffffffffffffffffffffffffffffffffffffff1673ffffffffffffffffffffffffffffffffffffffff16815260200190815260200160002081905550816002600082825461198e91906132e2565b92505081905550600073ffffffffffffffffffffffffffffffffffffffff168373ffffffffffffffffffffffffffffffffffffffff167fddf252ad1be2c89b69c2b068fc378daa952ba7f163c4a11628f55a4df523b3ef846040516119f391906131a4565b60405180910390a3611a0783600084611c98565b505050565b60008060008411611a52576040517f08c379a0000000000000000000000000000000000000000000000000000000008152600401611a4990613144565b60405180910390fd5b611a5a611fd1565b841115611a9c576040517f08c379a0000000000000000000000000000000000000000000000000000000008152600401611a9390612f44565b60405180910390fd5b6000611ab48585600001611fe290919063ffffffff16565b90508360000180549050811415611ad2576000809250925050611b21565b6001846001018281548110611b10577f4e487b7100000000000000000000000000000000000000000000000000000000600052603260045260246000fd5b906000526020600020015492509250505b9250929050565b6000611b346008612108565b6000611b3e611fd1565b90507f8030e83b04d87bef53480e26263266d6ca66863aa8506aca6f2559d18aa1cb6781604051611b6f91906131a4565b60405180910390a18091505090565b600080600a60008473ffffffffffffffffffffffffffffffffffffffff1673ffffffffffffffffffffffffffffffffffffffff1681526020019081526020016000209050611bcb81611046565b9150611bd681612108565b50919050565b6000611bef611be9611690565b8361211e565b9050919050565b6000806000611c0787878787612151565b91509150611c148161225e565b8192505050949350505050565b611c71600560008373ffffffffffffffffffffffffffffffffffffffff1673ffffffffffffffffffffffffffffffffffffffff168152602001908152602001600020611c6c83610a06565b6125af565b50565b611c866006611c816106cc565b6125af565b565b611c93838383610f87565b505050565b505050565b606060006002836002611cb09190613288565b611cba9190613201565b67ffffffffffffffff811115611cf9577f4e487b7100000000000000000000000000000000000000000000000000000000600052604160045260246000fd5b6040519080825280601f01601f191660200182016040528015611d2b5781602001600182028036833780820191505090505b5090507f300000000000000000000000000000000000000000000000000000000000000081600081518110611d89577f4e487b7100000000000000000000000000000000000000000000000000000000600052603260045260246000fd5b60200101907effffffffffffffffffffffffffffffffffffffffffffffffffffffffffffff1916908160001a9053507f780000000000000000000000000000000000000000000000000000000000000081600181518110611e13577f4e487b7100000000000000000000000000000000000000000000000000000000600052603260045260246000fd5b60200101907effffffffffffffffffffffffffffffffffffffffffffffffffffffffffffff1916908160001a90535060006001846002611e539190613288565b611e5d9190613201565b90505b6001811115611f49577f3031323334353637383961626364656600000000000000000000000000000000600f861660108110611ec5577f4e487b7100000000000000000000000000000000000000000000000000000000600052603260045260246000fd5b1a60f81b828281518110611f02577f4e487b7100000000000000000000000000000000000000000000000000000000600052603260045260246000fd5b60200101907effffffffffffffffffffffffffffffffffffffffffffffffffffffffffffff1916908160001a905350600485901c945080611f42906133d4565b9050611e60565b5060008414611f8d576040517f08c379a0000000000000000000000000000000000000000000000000000000008152600401611f8490612f64565b60405180910390fd5b8091505092915050565b60008383834630604051602001611fb2959493929190612e6a565b6040516020818303038152906040528051906020012090509392505050565b6000611fdd6008611046565b905090565b60008083805490501415611ff95760009050612102565b600080848054905090505b80821015612083576000612018838361262a565b905084868281548110612054577f4e487b7100000000000000000000000000000000000000000000000000000000600052603260045260246000fd5b9060005260206000200154111561206d5780915061207d565b60018161207a9190613201565b92505b50612004565b6000821180156120e15750838560018461209d91906132e2565b815481106120d4577f4e487b7100000000000000000000000000000000000000000000000000000000600052603260045260246000fd5b9060005260206000200154145b156120fc576001826120f391906132e2565b92505050612102565b81925050505b92915050565b6001816000016000828254019250508190555050565b60008282604051602001612133929190612d62565b60405160208183030381529060405280519060200120905092915050565b6000807f7fffffffffffffffffffffffffffffff5d576e7357a4501ddfe92f46681b20a08360001c111561218c576000600391509150612255565b601b8560ff16141580156121a45750601c8560ff1614155b156121b6576000600491509150612255565b6000600187878787604051600081526020016040526040516121db9493929190612ebd565b6020604051602081039080840390855afa1580156121fd573d6000803e3d6000fd5b505050602060405103519050600073ffffffffffffffffffffffffffffffffffffffff168173ffffffffffffffffffffffffffffffffffffffff16141561224c57600060019250925050612255565b80600092509250505b94509492505050565b60006004811115612298577f4e487b7100000000000000000000000000000000000000000000000000000000600052602160045260246000fd5b8160048111156122d1577f4e487b7100000000000000000000000000000000000000000000000000000000600052602160045260246000fd5b14156122dc576125ac565b60016004811115612316577f4e487b7100000000000000000000000000000000000000000000000000000000600052602160045260246000fd5b81600481111561234f577f4e487b7100000000000000000000000000000000000000000000000000000000600052602160045260246000fd5b1415612390576040517f08c379a000000000000000000000000000000000000000000000000000000000815260040161238790612f24565b60405180910390fd5b600260048111156123ca577f4e487b7100000000000000000000000000000000000000000000000000000000600052602160045260246000fd5b816004811115612403577f4e487b7100000000000000000000000000000000000000000000000000000000600052602160045260246000fd5b1415612444576040517f08c379a000000000000000000000000000000000000000000000000000000000815260040161243b90612fc4565b60405180910390fd5b6003600481111561247e577f4e487b7100000000000000000000000000000000000000000000000000000000600052602160045260246000fd5b8160048111156124b7577f4e487b7100000000000000000000000000000000000000000000000000000000600052602160045260246000fd5b14156124f8576040517f08c379a00000000000000000000000000000000000000000000000000000000081526004016124ef90613044565b60405180910390fd5b600480811115612531577f4e487b7100000000000000000000000000000000000000000000000000000000600052602160045260246000fd5b81600481111561256a577f4e487b7100000000000000000000000000000000000000000000000000000000600052602160045260246000fd5b14156125ab576040517f08c379a00000000000000000000000000000000000000000000000000000000081526004016125a290613064565b60405180910390fd5b5b50565b60006125b9611fd1565b9050806125c884600001612650565b10156126255782600001819080600181540180825580915050600190039060005260206000200160009091909190915055826001018290806001815401808255809150506001900390600052602060002001600090919091909150555b505050565b6000600282841861263b9190613257565b8284166126489190613201565b905092915050565b6000808280549050141561266757600090506126be565b816001838054905061267991906132e2565b815481106126b0577f4e487b7100000000000000000000000000000000000000000000000000000000600052603260045260246000fd5b906000526020600020015490505b919050565b6000813590506126d281613a75565b92915050565b6000813590506126e781613a8c565b92915050565b6000813590506126fc81613aa3565b92915050565b60008135905061271181613aba565b92915050565b60008135905061272681613ad1565b92915050565b60006020828403121561273e57600080fd5b600061274c848285016126c3565b91505092915050565b6000806040838503121561276857600080fd5b6000612776858286016126c3565b9250506020612787858286016126c3565b9150509250929050565b6000806000606084860312156127a657600080fd5b60006127b4868287016126c3565b93505060206127c5868287016126c3565b92505060406127d686828701612702565b9150509250925092565b600080600080600080600060e0888a0312156127fb57600080fd5b60006128098a828b016126c3565b975050602061281a8a828b016126c3565b965050604061282b8a828b01612702565b955050606061283c8a828b01612702565b945050608061284d8a828b01612717565b93505060a061285e8a828b016126d8565b92505060c061286f8a828b016126d8565b91505092959891949750929550565b6000806040838503121561289157600080fd5b600061289f858286016126c3565b92505060206128b085828601612702565b9150509250929050565b6000602082840312156128cc57600080fd5b60006128da848285016126d8565b91505092915050565b600080604083850312156128f657600080fd5b6000612904858286016126d8565b9250506020612915858286016126c3565b9150509250929050565b60006020828403121561293157600080fd5b600061293f848285016126ed565b91505092915050565b60006020828403121561295a57600080fd5b600061296884828501612702565b91505092915050565b61297a81613316565b82525050565b61298981613328565b82525050565b61299881613334565b82525050565b6129af6129aa82613334565b613430565b82525050565b60006129c0826131da565b6129ca81856131e5565b93506129da8185602086016133a1565b6129e3816134c7565b840191505092915050565b60006129f9826131da565b612a0381856131f6565b9350612a138185602086016133a1565b80840191505092915050565b6000612a2c6018836131e5565b9150612a37826134d8565b602082019050919050565b6000612a4f601d836131e5565b9150612a5a82613501565b602082019050919050565b6000612a726020836131e5565b9150612a7d8261352a565b602082019050919050565b6000612a956023836131e5565b9150612aa082613553565b604082019050919050565b6000612ab86022836131e5565b9150612ac3826135a2565b604082019050919050565b6000612adb601f836131e5565b9150612ae6826135f1565b602082019050919050565b6000612afe6022836131e5565b9150612b098261361a565b604082019050919050565b6000612b216002836131f6565b9150612b2c82613669565b600282019050919050565b6000612b44601d836131e5565b9150612b4f82613692565b602082019050919050565b6000612b676026836131e5565b9150612b72826136bb565b604082019050919050565b6000612b8a6022836131e5565b9150612b958261370a565b604082019050919050565b6000612bad6022836131e5565b9150612bb882613759565b604082019050919050565b6000612bd0601e836131e5565b9150612bdb826137a8565b602082019050919050565b6000612bf36028836131e5565b9150612bfe826137d1565b604082019050919050565b6000612c166024836131e5565b9150612c2182613820565b604082019050919050565b6000612c396021836131e5565b9150612c448261386f565b604082019050919050565b6000612c5c6025836131e5565b9150612c67826138be565b604082019050919050565b6000612c7f6024836131e5565b9150612c8a8261390d565b604082019050919050565b6000612ca26016836131e5565b9150612cad8261395c565b602082019050919050565b6000612cc56017836131f6565b9150612cd082613985565b601782019050919050565b6000612ce86025836131e5565b9150612cf3826139ae565b604082019050919050565b6000612d0b6011836131f6565b9150612d16826139fd565b601182019050919050565b6000612d2e602f836131e5565b9150612d3982613a26565b604082019050919050565b612d4d8161338a565b82525050565b612d5c81613394565b82525050565b6000612d6d82612b14565b9150612d79828561299e565b602082019150612d89828461299e565b6020820191508190509392505050565b6000612da482612cb8565b9150612db082856129ee565b9150612dbb82612cfe565b9150612dc782846129ee565b91508190509392505050565b6000602082019050612de86000830184612980565b92915050565b6000602082019050612e03600083018461298f565b92915050565b600060c082019050612e1e600083018961298f565b612e2b6020830188612971565b612e386040830187612971565b612e456060830186612d44565b612e526080830185612d44565b612e5f60a0830184612d44565b979650505050505050565b600060a082019050612e7f600083018861298f565b612e8c602083018761298f565b612e99604083018661298f565b612ea66060830185612d44565b612eb36080830184612971565b9695505050505050565b6000608082019050612ed2600083018761298f565b612edf6020830186612d53565b612eec604083018561298f565b612ef9606083018461298f565b95945050505050565b60006020820190508181036000830152612f1c81846129b5565b905092915050565b60006020820190508181036000830152612f3d81612a1f565b9050919050565b60006020820190508181036000830152612f5d81612a42565b9050919050565b60006020820190508181036000830152612f7d81612a65565b9050919050565b60006020820190508181036000830152612f9d81612a88565b9050919050565b60006020820190508181036000830152612fbd81612aab565b9050919050565b60006020820190508181036000830152612fdd81612ace565b9050919050565b60006020820190508181036000830152612ffd81612af1565b9050919050565b6000602082019050818103600083015261301d81612b37565b9050919050565b6000602082019050818103600083015261303d81612b5a565b9050919050565b6000602082019050818103600083015261305d81612b7d565b9050919050565b6000602082019050818103600083015261307d81612ba0565b9050919050565b6000602082019050818103600083015261309d81612bc3565b9050919050565b600060208201905081810360008301526130bd81612be6565b9050919050565b600060208201905081810360008301526130dd81612c09565b9050919050565b600060208201905081810360008301526130fd81612c2c565b9050919050565b6000602082019050818103600083015261311d81612c4f565b9050919050565b6000602082019050818103600083015261313d81612c72565b9050919050565b6000602082019050818103600083015261315d81612c95565b9050919050565b6000602082019050818103600083015261317d81612cdb565b9050919050565b6000602082019050818103600083015261319d81612d21565b9050919050565b60006020820190506131b96000830184612d44565b92915050565b60006020820190506131d46000830184612d53565b92915050565b600081519050919050565b600082825260208201905092915050565b600081905092915050565b600061320c8261338a565b91506132178361338a565b9250827fffffffffffffffffffffffffffffffffffffffffffffffffffffffffffffffff0382111561324c5761324b61343a565b5b828201905092915050565b60006132628261338a565b915061326d8361338a565b92508261327d5761327c613469565b5b828204905092915050565b60006132938261338a565b915061329e8361338a565b9250817fffffffffffffffffffffffffffffffffffffffffffffffffffffffffffffffff04831182151516156132d7576132d661343a565b5b828202905092915050565b60006132ed8261338a565b91506132f88361338a565b92508282101561330b5761330a61343a565b5b828203905092915050565b60006133218261336a565b9050919050565b60008115159050919050565b6000819050919050565b60007fffffffff0000000000000000000000000000000000000000000000000000000082169050919050565b600073ffffffffffffffffffffffffffffffffffffffff82169050919050565b6000819050919050565b600060ff82169050919050565b60005b838110156133bf5780820151818401526020810190506133a4565b838111156133ce576000848401525b50505050565b60006133df8261338a565b915060008214156133f3576133f261343a565b5b600182039050919050565b6000600282049050600182168061341657607f821691505b6020821081141561342a57613429613498565b5b50919050565b6000819050919050565b7f4e487b7100000000000000000000000000000000000000000000000000000000600052601160045260246000fd5b7f4e487b7100000000000000000000000000000000000000000000000000000000600052601260045260246000fd5b7f4e487b7100000000000000000000000000000000000000000000000000000000600052602260045260246000fd5b6000601f19601f8301169050919050565b7f45434453413a20696e76616c6964207369676e61747572650000000000000000600082015250565b7f4552433230536e617073686f743a206e6f6e6578697374656e74206964000000600082015250565b7f537472696e67733a20686578206c656e67746820696e73756666696369656e74600082015250565b7f45524332303a207472616e7366657220746f20746865207a65726f206164647260008201527f6573730000000000000000000000000000000000000000000000000000000000602082015250565b7f45524332303a206275726e20616d6f756e7420657863656564732062616c616e60008201527f6365000000000000000000000000000000000000000000000000000000000000602082015250565b7f45434453413a20696e76616c6964207369676e6174757265206c656e67746800600082015250565b7f45524332303a20617070726f766520746f20746865207a65726f20616464726560008201527f7373000000000000000000000000000000000000000000000000000000000000602082015250565b7f1901000000000000000000000000000000000000000000000000000000000000600082015250565b7f45524332305065726d69743a206578706972656420646561646c696e65000000600082015250565b7f45524332303a207472616e7366657220616d6f756e742065786365656473206260008201527f616c616e63650000000000000000000000000000000000000000000000000000602082015250565b7f45434453413a20696e76616c6964207369676e6174757265202773272076616c60008201527f7565000000000000000000000000000000000000000000000000000000000000602082015250565b7f45434453413a20696e76616c6964207369676e6174757265202776272076616c60008201527f7565000000000000000000000000000000000000000000000000000000000000602082015250565b7f45524332305065726d69743a20696e76616c6964207369676e61747572650000600082015250565b7f45524332303a207472616e7366657220616d6f756e742065786365656473206160008201527f6c6c6f77616e6365000000000000000000000000000000000000000000000000602082015250565b7f45524332303a206275726e20616d6f756e74206578636565647320616c6c6f7760008201527f616e636500000000000000000000000000000000000000000000000000000000602082015250565b7f45524332303a206275726e2066726f6d20746865207a65726f2061646472657360008201527f7300000000000000000000000000000000000000000000000000000000000000602082015250565b7f45524332303a207472616e736665722066726f6d20746865207a65726f20616460008201527f6472657373000000000000000000000000000000000000000000000000000000602082015250565b7f45524332303a20617070726f76652066726f6d20746865207a65726f2061646460008201527f7265737300000000000000000000000000000000000000000000000000000000602082015250565b7f4552433230536e617073686f743a206964206973203000000000000000000000600082015250565b7f416363657373436f6e74726f6c3a206163636f756e7420000000000000000000600082015250565b7f45524332303a2064656372656173656420616c6c6f77616e63652062656c6f7760008201527f207a65726f000000000000000000000000000000000000000000000000000000602082015250565b7f206973206d697373696e6720726f6c6520000000000000000000000000000000600082015250565b7f416363657373436f6e74726f6c3a2063616e206f6e6c792072656e6f756e636560008201527f20726f6c657320666f722073656c660000000000000000000000000000000000602082015250565b613a7e81613316565b8114613a8957600080fd5b50565b613a9581613334565b8114613aa057600080fd5b50565b613aac8161333e565b8114613ab757600080fd5b50565b613ac38161338a565b8114613ace57600080fd5b50565b613ada81613394565b8114613ae557600080fd5b5056fea2646970667358221220af7fab2087a41b3d02752a6c98caa244107bec86833370069b3fe87699b4af5664736f6c63430008020033",
  "linkReferences": {},
  "deployedLinkReferences": {}
}